:040000000C942A0032
:100004000C9400000C9400000C9400000C9400006C
:100014000C9400000C9400000C9400000C9400005C
:100024000C9400000C9400000C9400000C9400004C
:100034000C9400000C9400000C9400000C9400003C
:100044000C9400000C9400000C9400000C9400002C
:10005400F894EE27ECBBF1E0FBBFEBBFE5BF8DE00E
:10006400A2E0BB27ED938A95E9F780E098E0A0E64B
:10007400ED930197E9F7EFE5EDBFE8E0EEBFC0E6E9
:10008400D2E00C944500E0E0EABBEBBBE7BBE8BB85
:10009400E4BBE5BBE1BBE2BBE3BFE2BFECBFEFBD4A
:1000A400EEBDEDBDECBDE7BDE6BDEBBDEABDE9BD12
:1000B400E8BDE2BDE5BDE4BDE3BDE9BFE5BFE4BF26
:1000C400EAB9E0E8E8B9E0E0E0BFE6B9EDB9E6BFD7
:1000D400EFEFEABBE1E013D0E2E011D0E4E00FD0AF
:1000E400E8E00DD0E0E10BD0E0E209D0E0E407D095
:1000F400E0E8EBBBA4E6B0E009D0ECCFFFCFEBBB6C
:10010400A4E6B0E003D0E0E0EBBB0895109639F02C
:10011400A89580ED97E00197F1F71197C9F7089535
:00000001FF
