:040000000C94380024
:100004000C9400000C9400000C9400000C9400006C
:100014000C9400000C9400000C9400000C9400005C
:100024000C9400000C9400000C9400000C9400004C
:100034000C9400000C9400000C9400000C9400003C
:100044000C9400000C9400000C9400000C9400002C
:100054003F0006005B004F0066006D007D00070056
:100064007F006F001300600254000000F894EE2734
:10007400ECBBF1E0FBBFEBBFE5BF8DE0A2E0BB272B
:10008400ED938A95E9F780E098E0A0E6ED93019777
:10009400E9F7E8E6F0E085919591009761F0A59184
:1000A400B59105901590BF01F00105900D9201974F
:1000B400E1F7FB01F0CFEFE5EDBFE8E0EEBFC0E60E
:1000C400D2E00C946500E0E0EABBEBBBE7BBE8BB25
:1000D400E4BBE5BBE1BBE2BBE3BFE2BFECBFEFBD0A
:1000E400EEBDEDBDECBDE7BDE6BDEBBDEABDE9BDD2
:1000F400E8BDE2BDE5BDE4BDE3BDE9BFE5BFE4BFE6
:10010400EAB9E0E8E8B9E0E0E0BFE6B9EDB9E6BF96
:10011400EFEFEABBE7BB44245524E9E0F0E0E41543
:10012400F505BCF066247724E9E0F0E0E615F70570
:1001340064F0EEEFE8BBF2010ED0EDEFE8BBF301A3
:100144000AD0F30131963F01EFCFF20131962F012E
:10015400E4CFE1CFFFCFA0E6B2E0EE0FFF1FAE0F7A
:10016400BF1FEC91EBBBAAE0B0E000C0109639F0E1
:10017400A89580ED97E00197F1F71197C9F70895D5
:00000001FF
