:060000000C9448000C9472
:1000060000000C9400000C9400000C9400000C946A
:1000160000000C9400000C9400000C9400000C945A
:1000260000000C9400000C9400000C9400000C944A
:1000360000000C9400000C9400000C9400000C943A
:1000460000000C9400000C9400000C940000102793
:10005600E80364000A00010000100001100001001E
:1000660048617070792042697274686461790045EC
:100076006D6F6E0080C00F006002660005006F02A3
:100086007500020074027A000000F894EE27ECBBBB
:10009600F1E0FBBFEBBFE5BF8DE0A2E0BB27ED9330
:1000A6008A95E9F780E098E0A0E6ED930197E9F7F5
:1000B600ECE7F0E085919591009761F0A591B591F7
:1000C60005901590BF01F00105900D920197E1F79B
:1000D600FB01F0CFEFE5EDBFE8E0EEBFC0E6D2E012
:1000E6000C947500E0E0EABBEBBBE7BBE8BBE4BB06
:1000F600E5BBE1BBE2BBE3BFE2BFECBFEFBDEEBDDC
:10010600EDBDECBDE7BDE6BDEBBDEABDE9BDE8BDB5
:10011600E2BDE5BDE4BDE3BDE9BFE5BFE4BFEAB9C5
:10012600E0E8E8B9E0E0E0BFE6B9EDB9E6BFA0E196
:1001360079D044245524EEE0F0E0E415F50584F08A
:100146004A92A0E031D0A0E6B2E097D04A92A1E070
:100156002BD0AFE6B2E091D0F20131962F01EBCF72
:10016600E8CFFFCF1A931A2FEBB3EF70AE2FE12F24
:10017600E07FEA2BEBBB8DE08A95F1F7DA9A8DE00A
:100186008A95F1F7DA988DE08A95F1F774C0AA930B
:10019600A881E8DFE881E295E883A881E3DF85E8C6
:1001A6008A95F1F7219608951A930A931A2F0A81D0
:1001B600E12FF0E0EC58FD4FE081E00FAE2FE7DFD6
:1001C600702E612E1981088123960895A2E059D0D8
:1001D600ACE0DDDFA1E055D0E0E06E2E7E2E089586
:1001E6001A931A2F1A3011F0791438F0E0E0EA93D6
:1001F6006394A62DD9DF1A30F1F17394D89AA12F02
:10020600C6DFD89838C048D09D01D9012F5F3F4F2F
:10021600EC911E2FE03019F0A12FE2DFF6CF41D08E
:10022600249608951A931A2FEAB3E06FEABBD29A7E
:10023600D09AD19ADA98D898D998912EE12FE05889
:10024600E0937602E12FE054E0937702A4E1B0E078
:100256002DD01BD01AD019D0A0E284DF88EC90E014
:100266000197F1F7A8E293DFA4E091DFA5E88FDF1D
:10027600A6E08DDFABDF19910895C5DFA8EEB3E0E8
:1002860015C085DFA3E0B0E011C0A0E36BDF88EC0A
:1002960090E00197F1F708953A932A931A930A93F7
:1002A60008953B812A81198108810895109639F0B5
:1002B600A89580ED97E00197F1F71197C9F7089592
:00000001FF
