:0C0000000C943E000C9400000C940000D6
:10000C000C9400000C9400000C9400000C94000064
:10001C000C9400000C9400000C9400000C94000054
:10002C000C9400000C9400000C9400000C94000044
:10003C000C9400000C9400000C9400000C94000034
:10004C000C9400000C9400001027E80364000A00D4
:10005C000100001000011000010048656C6C6F007D
:10006C0080C0060060026600020066026C000000A0
:10007C00F894EE27ECBBF1E0FBBFEBBFE5BF8DE0E6
:10008C00A2E0BB27ED938A95E9F780E098E0A0E623
:10009C00ED930197E9F7EEE6F0E0859195910097E5
:1000AC0061F0A591B59105901590BF01F0010590F7
:1000BC000D920197E1F7FB01F0CFEFE5EDBFE8E022
:1000CC00EEBFC0E6D2E00C946B00E0E0EABBEBBB09
:1000DC00E7BBE8BBE4BBE5BBE1BBE2BBE3BFE2BF14
:1000EC00ECBFEFBDEEBDEDBDECBDE7BDE6BDEBBDC0
:1000FC00EABDE9BDE8BDE2BDE5BDE4BDE3BDE9BFD8
:10010C00E5BFE4BFEAB9E0E8E8B9E0E0E0BFE6B992
:10011C00EDB9E6BFA0E16AD0E0E0EA93A0E028D018
:10012C00A0E6B2E054D036D0F7CFFFCF1A931A2FF7
:10013C00EBB3EF70AE2FE12FE07FEA2BEBBB8DE042
:10014C008A95F1F7DA9A8DE08A95F1F7DA988DE0D5
:10015C008A95F1F774C0AA93A881E8DFE881E2954B
:10016C00E883A881E3DF85E88A95F1F72196089565
:10017C001A930A931A2F0A81E12FF0E0EA59FD4FE6
:10018C00E081E00FAE2FE7DF502E412E1981088160
:10019C0023960895A2E055D0ACE0DDDFA1E051D06C
:1001AC00E0E04E2E5E2E08951A931A2F1A3011F09D
:1001BC00571438F0E0E0EA934394A42DD9DF1A30B9
:1001CC00F1F15394D89AA12FC6DFD89838C044D0F7
:1001DC009D01D9012F5F3F4FEC911E2FE03019F09C
:1001EC00A12FE2DFF6CF3DD0249608951A931A2F53
:1001FC00EAB3E06FEABBD29AD09AD19ADA98D8983F
:10020C00D998712EE12FE058E0936802E12FE05469
:10021C00E0936902A4E1B0E029D017D016D015D034
:10022C00A0E284DF88EC90E00197F1F7A8E293DF7D
:10023C00A4E091DFA5E88FDFA6E08DDFABDF19919D
:10024C00089589DFA3E0B0E011C0A0E36FDF88EC74
:10025C0090E00197F1F708953A932A931A930A9331
:10026C0008953B812A81198108810895109639F0EF
:10027C00A89580ED97E00197F1F71197C9F70895CC
:00000001FF
