:100000000C9445000C9400000C9400000C9400002B
:100010000C9400000C9400000C9400000C94000060
:100020000C9400000C9400000C9400000C94000050
:100030000C9400000C9400000C9400000C94000040
:100040000C9400000C9400000C9400000C94000030
:100050000C9400001027E80364000A00010000105F
:1000600000011000010000003F0006005B004F008F
:1000700066006D007D0007007F006F000200040035
:1000800066001300600268000000F894EE27ECBBE5
:10009000F1E0FBBFEBBFE5BF8DE0A2E0BB27ED9336
:1000A0008A95E9F780E098E0A0E6ED930197E9F7FB
:1000B000ECE7F0E085919591009761F0A591B591FD
:1000C00005901590BF01F00105900D920197E1F7A1
:1000D000FB01F0CFEFE5EDBFE8E0EEBFC0E6D2E018
:1000E0000C947200E0E0EABBEBBBE7BBE8BBE4BB0F
:1000F000E5BBE1BBE2BBE3BFE2BFECBFEFBDEEBDE2
:10010000EDBDECBDE7BDE6BDEBBDEABDE9BDE8BDBB
:10011000E2BDE5BDE4BDE3BDE9BFE5BFE4BFEAB9CB
:10012000E0E8E8B9E0E0E0BFE6B9EDB9E6BFEABB78
:10013000E8E0E7BBEFEFE4BBCD9B16C0EAE0F0E000
:10014000E415F50511F444245524F201A0E6B2E0CB
:10015000EE0FFF1FAE0FBF1FEC91E5BBACE2B1E0AD
:1001600005D0F20131962F01E7CFFFCF109639F07D
:10017000A89580ED97E00197F1F71197C9F70895D9
:00000001FF
